{
  "contractName": "CrowdFunding",
  "abi": [
    {
      "constant": true,
      "inputs": [],
      "name": "numInvestors",
      "outputs": [
        {
          "name": "",
          "type": "uint256"
        }
      ],
      "payable": false,
      "stateMutability": "view",
      "type": "function"
    },
    {
      "constant": true,
      "inputs": [],
      "name": "goalAmount",
      "outputs": [
        {
          "name": "",
          "type": "uint256"
        }
      ],
      "payable": false,
      "stateMutability": "view",
      "type": "function"
    },
    {
      "constant": true,
      "inputs": [],
      "name": "deadline",
      "outputs": [
        {
          "name": "",
          "type": "uint256"
        }
      ],
      "payable": false,
      "stateMutability": "view",
      "type": "function"
    },
    {
      "constant": true,
      "inputs": [
        {
          "name": "",
          "type": "uint256"
        }
      ],
      "name": "investors",
      "outputs": [
        {
          "name": "addr",
          "type": "address"
        },
        {
          "name": "amount",
          "type": "uint256"
        }
      ],
      "payable": false,
      "stateMutability": "view",
      "type": "function"
    },
    {
      "constant": true,
      "inputs": [],
      "name": "amountRaised",
      "outputs": [
        {
          "name": "",
          "type": "uint256"
        }
      ],
      "payable": false,
      "stateMutability": "view",
      "type": "function"
    },
    {
      "constant": true,
      "inputs": [],
      "name": "goalReached",
      "outputs": [
        {
          "name": "",
          "type": "bool"
        }
      ],
      "payable": false,
      "stateMutability": "view",
      "type": "function"
    },
    {
      "constant": true,
      "inputs": [],
      "name": "owner",
      "outputs": [
        {
          "name": "",
          "type": "address"
        }
      ],
      "payable": false,
      "stateMutability": "view",
      "type": "function"
    },
    {
      "inputs": [
        {
          "name": "_duration",
          "type": "uint256"
        },
        {
          "name": "_goalAmount",
          "type": "uint256"
        }
      ],
      "payable": false,
      "stateMutability": "nonpayable",
      "type": "constructor"
    },
    {
      "constant": false,
      "inputs": [],
      "name": "fund",
      "outputs": [],
      "payable": true,
      "stateMutability": "payable",
      "type": "function"
    },
    {
      "constant": false,
      "inputs": [],
      "name": "checkGoalReached",
      "outputs": [],
      "payable": false,
      "stateMutability": "nonpayable",
      "type": "function"
    }
  ],
  "bytecode": "0x608060405234801561001057600080fd5b5060405160408061065b8339810180604052810190808051906020019092919080519060200190929190505050336000806101000a81548173ffffffffffffffffffffffffffffffffffffffff021916908373ffffffffffffffffffffffffffffffffffffffff160217905550814201600281905550806004819055506000600360006101000a81548160ff021916908315150217905550600060018190555060006005819055505050610592806100c96000396000f300608060405260043610610099576000357c0100000000000000000000000000000000000000000000000000000000900463ffffffff16806301cb3b201461009e578063132ae5e9146100b55780632636b945146100e057806329dcb0cf1461010b5780633feb5f2b146101365780637b3e5e7b146101aa5780637d3d6522146101d55780638da5cb5b14610204578063b60d42881461025b575b600080fd5b3480156100aa57600080fd5b506100b3610265565b005b3480156100c157600080fd5b506100ca61042c565b6040518082815260200191505060405180910390f35b3480156100ec57600080fd5b506100f5610432565b6040518082815260200191505060405180910390f35b34801561011757600080fd5b50610120610438565b6040518082815260200191505060405180910390f35b34801561014257600080fd5b506101616004803603810190808035906020019092919050505061043e565b604051808373ffffffffffffffffffffffffffffffffffffffff1673ffffffffffffffffffffffffffffffffffffffff1681526020018281526020019250505060405180910390f35b3480156101b657600080fd5b506101bf610482565b6040518082815260200191505060405180910390f35b3480156101e157600080fd5b506101ea610488565b604051808215151515815260200191505060405180910390f35b34801561021057600080fd5b5061021961049b565b604051808273ffffffffffffffffffffffffffffffffffffffff1673ffffffffffffffffffffffffffffffffffffffff16815260200191505060405180910390f35b6102636104c0565b005b60008060009054906101000a900473ffffffffffffffffffffffffffffffffffffffff1673ffffffffffffffffffffffffffffffffffffffff163373ffffffffffffffffffffffffffffffffffffffff161415156102c257600080fd5b600360009054906101000a900460ff161515156102de57600080fd5b60025442101515156102ef57600080fd5b6001600360006101000a81548160ff02191690831515021790555060045460055410151561038a576000809054906101000a900473ffffffffffffffffffffffffffffffffffffffff1673ffffffffffffffffffffffffffffffffffffffff166108fc3073ffffffffffffffffffffffffffffffffffffffff16319081150290604051600060405180830381858888f1935050505050610429565b600090505b600154811015610428576006600082815260200190815260200160002060000160009054906101000a900473ffffffffffffffffffffffffffffffffffffffff1673ffffffffffffffffffffffffffffffffffffffff166108fc60066000848152602001908152602001600020600101549081150290604051600060405180830381858888f1935050505050808060010191505061038f565b5b50565b60015481565b60045481565b60025481565b60066020528060005260406000206000915090508060000160009054906101000a900473ffffffffffffffffffffffffffffffffffffffff16908060010154905082565b60055481565b600360009054906101000a900460ff1681565b6000809054906101000a900473ffffffffffffffffffffffffffffffffffffffff1681565b6000600360009054906101000a900460ff161515156104de57600080fd5b60066000600160008154809291906001019190505581526020019081526020016000209050338160000160006101000a81548173ffffffffffffffffffffffffffffffffffffffff021916908373ffffffffffffffffffffffffffffffffffffffff1602179055503481600101819055508060010154600560008282540192505081905550505600a165627a7a72305820639fb42cabf36ab6aea819881f7f7bcef008afadb35b19613c0a3e4b2cfd401a0029",
  "source": "pragma solidity ^0.4.11;\n\ncontract CrowdFunding {\n  struct Investor {\n    address addr;\n    uint amount;\n  }\n\n  address public owner;\n  uint public numInvestors;\n  uint public deadline;\n  bool public goalReached;\n  uint public goalAmount;\n  uint public amountRaised;\n  mapping (uint => Investor) public investors;\n\n  // オーナーのみ実行可能にしたい処理が一部あるのでmodifierを設定\n  modifier onlyOwner() {\n    require(msg.sender == owner);\n    _;\n  }\n\n  /**\n  * コンストラクタ\n  * @param _duration プロジェクトの期間を設定\n  * @param _goalAmount 目標金額を設定\n  */\n  function CrowdFunding(uint _duration, uint _goalAmount) {\n    owner = msg.sender;\n    deadline = now + _duration;\n    goalAmount = _goalAmount;\n    goalReached = false;\n    numInvestors = 0;\n    amountRaised = 0;\n  }\n\n  /**\n  * 出資を行う\n  */\n  function fund() payable {\n    require(!goalReached);\n\n    Investor investor = investors[numInvestors++];\n    investor.addr = msg.sender;\n    investor.amount = msg.value;\n    amountRaised += investor.amount;\n  }\n\n  /**\n  * 目標に達しているか確認し、達成した場合オーナーに出資金を送金\n  * 達成していない場合は各出資者に出資金を返金\n  */\n  function checkGoalReached() public onlyOwner {\n    require(!goalReached);\n    require(now >= deadline);\n\n    goalReached = true;\n    if(amountRaised >= goalAmount) {\n      owner.send(this.balance);\n    } else {\n      for(uint i = 0; i < numInvestors; i++) {\n        investors[i].addr.send(investors[i].amount);\n      }\n    }\n  }\n}",
  "sourcePath": "/Users/mitsuhiro/work/truffle-practice/CrowdFunding/contracts/CrowdFunding.sol",
  "compiler": {
    "name": "solc",
    "version": "0.4.24+commit.e67f0147.Emscripten.clang"
  },
  "schemaVersion": "2.0.1",
  "updatedAt": "2018-07-17T07:59:16.641Z"
}