{
  "contractName": "CMCOracle",
  "abi": [
    {
      "constant": true,
      "inputs": [],
      "name": "owner",
      "outputs": [
        {
          "name": "",
          "type": "address"
        }
      ],
      "payable": false,
      "stateMutability": "view",
      "type": "function"
    },
    {
      "constant": true,
      "inputs": [
        {
          "name": "",
          "type": "uint256"
        }
      ],
      "name": "btcMarketCap",
      "outputs": [
        {
          "name": "",
          "type": "uint256"
        }
      ],
      "payable": false,
      "stateMutability": "view",
      "type": "function"
    },
    {
      "inputs": [],
      "payable": false,
      "stateMutability": "nonpayable",
      "type": "constructor"
    },
    {
      "anonymous": false,
      "inputs": [],
      "name": "CallbackGetBTCCap",
      "type": "event"
    },
    {
      "constant": false,
      "inputs": [],
      "name": "updateBTCCap",
      "outputs": [],
      "payable": false,
      "stateMutability": "nonpayable",
      "type": "function"
    },
    {
      "constant": false,
      "inputs": [
        {
          "name": "cap",
          "type": "uint256[]"
        }
      ],
      "name": "setBTCCap",
      "outputs": [],
      "payable": false,
      "stateMutability": "nonpayable",
      "type": "function"
    },
    {
      "constant": true,
      "inputs": [],
      "name": "getBTCCap",
      "outputs": [
        {
          "name": "",
          "type": "uint256[]"
        }
      ],
      "payable": false,
      "stateMutability": "view",
      "type": "function"
    }
  ],
  "bytecode": "0x608060405234801561001057600080fd5b50336000806101000a81548173ffffffffffffffffffffffffffffffffffffffff021916908373ffffffffffffffffffffffffffffffffffffffff1602179055506103d4806100606000396000f30060806040526004361061006d576000357c0100000000000000000000000000000000000000000000000000000000900463ffffffff1680631701af271461007257806321e79a69146100895780638da5cb5b146100f5578063e200d88d1461014c578063f6287f8d1461018d575b600080fd5b34801561007e57600080fd5b506100876101f3565b005b34801561009557600080fd5b5061009e610221565b6040518080602001828103825283818151815260200191508051906020019060200280838360005b838110156100e15780820151818401526020810190506100c6565b505050509050019250505060405180910390f35b34801561010157600080fd5b5061010a610279565b604051808273ffffffffffffffffffffffffffffffffffffffff1673ffffffffffffffffffffffffffffffffffffffff16815260200191505060405180910390f35b34801561015857600080fd5b506101776004803603810190808035906020019092919050505061029e565b6040518082815260200191505060405180910390f35b34801561019957600080fd5b506101f1600480360381019080803590602001908201803590602001908080602002602001604051908101604052809392919081815260200183836020028082843782019150505050505091929192905050506102c1565b005b7fbc990f6ed9f9b01a5c7a8bc19e4a3c811b42c39a9407311f3101e4c4ba7f13e360405160405180910390a1565b6060600180548060200260200160405190810160405280929190818152602001828054801561026f57602002820191906000526020600020905b81548152602001906001019080831161025b575b5050505050905090565b6000809054906101000a900473ffffffffffffffffffffffffffffffffffffffff1681565b6001818154811015156102ad57fe5b906000526020600020016000915090505481565b6000809054906101000a900473ffffffffffffffffffffffffffffffffffffffff1673ffffffffffffffffffffffffffffffffffffffff163373ffffffffffffffffffffffffffffffffffffffff1614151561031c57600080fd5b8060019080519060200190610332929190610336565b5050565b828054828255906000526020600020908101928215610372579160200282015b82811115610371578251825591602001919060010190610356565b5b50905061037f9190610383565b5090565b6103a591905b808211156103a1576000816000905550600101610389565b5090565b905600a165627a7a72305820d954695a6ab4e3f793f78a8991232eb7ac4d40803292e913cae239add0848c470029",
  "source": "pragma solidity ^0.4.17;\n\ncontract CMCOracle {\n  // Contract owner\n  address public owner;\n\n  // BTC Marketcap Storage\n  uint[] public btcMarketCap;\n\n  // Callback function\n  event CallbackGetBTCCap();\n\n  function CMCOracle() public {\n    owner = msg.sender;\n  }\n\n  function updateBTCCap() public {\n    // Calls the callback function\n    CallbackGetBTCCap();\n  }\n\n  function setBTCCap(uint[] cap) public {\n    // If it isn't sent by a trusted oracle\n    // a.k.a ourselves, ignore it\n    require(msg.sender == owner);\n    btcMarketCap = cap;\n  }\n\n  function getBTCCap() constant public returns (uint[]) {\n    return btcMarketCap;\n  }\n}",
  "sourcePath": "/Users/mitsuhiro/work/truffle-practice/Oracle_test/contracts/CMCOracle.sol",
  "compiler": {
    "name": "solc",
    "version": "0.4.24+commit.e67f0147.Emscripten.clang"
  },
  "schemaVersion": "2.0.1",
  "updatedAt": "2018-07-23T07:06:00.305Z"
}